{
  "_format": "hh-sol-artifact-1",
  "contractName": "Voting",
  "sourceName": "contracts/Voting.sol",
  "abi": [
    {
      "inputs": [
        {
          "internalType": "string[]",
          "name": "_candidateNames",
          "type": "string[]"
        }
      ],
      "stateMutability": "nonpayable",
      "type": "constructor"
    },
    {
      "inputs": [
        {
          "internalType": "string",
          "name": "_name",
          "type": "string"
        }
      ],
      "name": "addCandidate",
      "outputs": [],
      "stateMutability": "nonpayable",
      "type": "function"
    },
    {
      "inputs": [
        {
          "internalType": "uint256",
          "name": "",
          "type": "uint256"
        }
      ],
      "name": "candidates",
      "outputs": [
        {
          "internalType": "string",
          "name": "name",
          "type": "string"
        },
        {
          "internalType": "uint256",
          "name": "voteCount",
          "type": "uint256"
        }
      ],
      "stateMutability": "view",
      "type": "function"
    },
    {
      "inputs": [],
      "name": "getAllVotesOfCandiates",
      "outputs": [
        {
          "components": [
            {
              "internalType": "string",
              "name": "name",
              "type": "string"
            },
            {
              "internalType": "uint256",
              "name": "voteCount",
              "type": "uint256"
            }
          ],
          "internalType": "struct Voting.Candidate[]",
          "name": "",
          "type": "tuple[]"
        }
      ],
      "stateMutability": "view",
      "type": "function"
    },
    {
      "inputs": [
        {
          "internalType": "uint256",
          "name": "_candidateIndex",
          "type": "uint256"
        }
      ],
      "name": "vote",
      "outputs": [],
      "stateMutability": "nonpayable",
      "type": "function"
    },
    {
      "inputs": [
        {
          "internalType": "address",
          "name": "",
          "type": "address"
        }
      ],
      "name": "voters",
      "outputs": [
        {
          "internalType": "bool",
          "name": "",
          "type": "bool"
        }
      ],
      "stateMutability": "view",
      "type": "function"
    }
  ],
  "bytecode": "0x60806040523480156200001157600080fd5b5060405162001697380380620016978339818101604052810190620000379190620003b4565b60005b8151811015620000dc576000604051806040016040528084848151811062000067576200006662000405565b5b60200260200101518152602001600081525090806001815401808255809150506001900390600052602060002090600202016000909190919091506000820151816000019081620000b991906200067f565b506020820151816001015550508080620000d39062000795565b9150506200003a565b5033600160006101000a81548173ffffffffffffffffffffffffffffffffffffffff021916908373ffffffffffffffffffffffffffffffffffffffff16021790555050620007e2565b6000604051905090565b600080fd5b600080fd5b600080fd5b6000601f19601f8301169050919050565b7f4e487b7100000000000000000000000000000000000000000000000000000000600052604160045260246000fd5b62000189826200013e565b810181811067ffffffffffffffff82111715620001ab57620001aa6200014f565b5b80604052505050565b6000620001c062000125565b9050620001ce82826200017e565b919050565b600067ffffffffffffffff821115620001f157620001f06200014f565b5b602082029050602081019050919050565b600080fd5b600080fd5b600067ffffffffffffffff8211156200022a57620002296200014f565b5b62000235826200013e565b9050602081019050919050565b60005b838110156200026257808201518184015260208101905062000245565b60008484015250505050565b6000620002856200027f846200020c565b620001b4565b905082815260208101848484011115620002a457620002a362000207565b5b620002b184828562000242565b509392505050565b600082601f830112620002d157620002d062000139565b5b8151620002e38482602086016200026e565b91505092915050565b600062000303620002fd84620001d3565b620001b4565b9050808382526020820190506020840283018581111562000329576200032862000202565b5b835b818110156200037757805167ffffffffffffffff81111562000352576200035162000139565b5b808601620003618982620002b9565b855260208501945050506020810190506200032b565b5050509392505050565b600082601f83011262000399576200039862000139565b5b8151620003ab848260208601620002ec565b91505092915050565b600060208284031215620003cd57620003cc6200012f565b5b600082015167ffffffffffffffff811115620003ee57620003ed62000134565b5b620003fc8482850162000381565b91505092915050565b7f4e487b7100000000000000000000000000000000000000000000000000000000600052603260045260246000fd5b600081519050919050565b7f4e487b7100000000000000000000000000000000000000000000000000000000600052602260045260246000fd5b600060028204905060018216806200048757607f821691505b6020821081036200049d576200049c6200043f565b5b50919050565b60008190508160005260206000209050919050565b60006020601f8301049050919050565b600082821b905092915050565b600060088302620005077fffffffffffffffffffffffffffffffffffffffffffffffffffffffffffffffff82620004c8565b620005138683620004c8565b95508019841693508086168417925050509392505050565b6000819050919050565b6000819050919050565b6000620005606200055a62000554846200052b565b62000535565b6200052b565b9050919050565b6000819050919050565b6200057c836200053f565b620005946200058b8262000567565b848454620004d5565b825550505050565b600090565b620005ab6200059c565b620005b881848462000571565b505050565b5b81811015620005e057620005d4600082620005a1565b600181019050620005be565b5050565b601f8211156200062f57620005f981620004a3565b6200060484620004b8565b8101602085101562000614578190505b6200062c6200062385620004b8565b830182620005bd565b50505b505050565b600082821c905092915050565b6000620006546000198460080262000634565b1980831691505092915050565b60006200066f838362000641565b9150826002028217905092915050565b6200068a8262000434565b67ffffffffffffffff811115620006a657620006a56200014f565b5b620006b282546200046e565b620006bf828285620005e4565b600060209050601f831160018114620006f75760008415620006e2578287015190505b620006ee858262000661565b8655506200075e565b601f1984166200070786620004a3565b60005b8281101562000731578489015182556001820191506020850194506020810190506200070a565b868310156200075157848901516200074d601f89168262000641565b8355505b6001600288020188555050505b505050505050565b7f4e487b7100000000000000000000000000000000000000000000000000000000600052601160045260246000fd5b6000620007a2826200052b565b91507fffffffffffffffffffffffffffffffffffffffffffffffffffffffffffffffff8203620007d757620007d662000766565b5b600182019050919050565b610ea580620007f26000396000f3fe608060405234801561001057600080fd5b50600436106100575760003560e01c80630121b93f1461005c5780633477ee2e14610078578063462e91ec146100a95780634d6bda5f146100c5578063a3ec138d146100e3575b600080fd5b6100766004803603810190610071919061055e565b610113565b005b610092600480360381019061008d919061055e565b61027d565b6040516100a092919061062a565b60405180910390f35b6100c360048036038101906100be919061078f565b610339565b005b6100cd6103f9565b6040516100da9190610930565b60405180910390f35b6100fd60048036038101906100f891906109b0565b6104f4565b60405161010a91906109f8565b60405180910390f35b600260003373ffffffffffffffffffffffffffffffffffffffff1673ffffffffffffffffffffffffffffffffffffffff16815260200190815260200160002060009054906101000a900460ff16156101a0576040517f08c379a000000000000000000000000000000000000000000000000000000000815260040161019790610a5f565b60405180910390fd5b60008054905081106101e7576040517f08c379a00000000000000000000000000000000000000000000000000000000081526004016101de90610acb565b60405180910390fd5b600081815481106101fb576101fa610aeb565b5b9060005260206000209060020201600101600081548092919061021d90610b49565b91905055506001600260003373ffffffffffffffffffffffffffffffffffffffff1673ffffffffffffffffffffffffffffffffffffffff16815260200190815260200160002060006101000a81548160ff02191690831515021790555050565b6000818154811061028d57600080fd5b90600052602060002090600202016000915090508060000180546102b090610bc0565b80601f01602080910402602001604051908101604052809291908181526020018280546102dc90610bc0565b80156103295780601f106102fe57610100808354040283529160200191610329565b820191906000526020600020905b81548152906001019060200180831161030c57829003601f168201915b5050505050908060010154905082565b600160009054906101000a900473ffffffffffffffffffffffffffffffffffffffff1673ffffffffffffffffffffffffffffffffffffffff163373ffffffffffffffffffffffffffffffffffffffff161461039357600080fd5b600060405180604001604052808381526020016000815250908060018154018082558091505060019003906000526020600020906002020160009091909190915060008201518160000190816103e99190610d9d565b5060208201518160010155505050565b60606000805480602002602001604051908101604052809291908181526020016000905b828210156104eb578382906000526020600020906002020160405180604001604052908160008201805461045090610bc0565b80601f016020809104026020016040519081016040528092919081815260200182805461047c90610bc0565b80156104c95780601f1061049e576101008083540402835291602001916104c9565b820191906000526020600020905b8154815290600101906020018083116104ac57829003601f168201915b505050505081526020016001820154815250508152602001906001019061041d565b50505050905090565b60026020528060005260406000206000915054906101000a900460ff1681565b6000604051905090565b600080fd5b600080fd5b6000819050919050565b61053b81610528565b811461054657600080fd5b50565b60008135905061055881610532565b92915050565b6000602082840312156105745761057361051e565b5b600061058284828501610549565b91505092915050565b600081519050919050565b600082825260208201905092915050565b60005b838110156105c55780820151818401526020810190506105aa565b60008484015250505050565b6000601f19601f8301169050919050565b60006105ed8261058b565b6105f78185610596565b93506106078185602086016105a7565b610610816105d1565b840191505092915050565b61062481610528565b82525050565b6000604082019050818103600083015261064481856105e2565b9050610653602083018461061b565b9392505050565b600080fd5b600080fd5b7f4e487b7100000000000000000000000000000000000000000000000000000000600052604160045260246000fd5b61069c826105d1565b810181811067ffffffffffffffff821117156106bb576106ba610664565b5b80604052505050565b60006106ce610514565b90506106da8282610693565b919050565b600067ffffffffffffffff8211156106fa576106f9610664565b5b610703826105d1565b9050602081019050919050565b82818337600083830152505050565b600061073261072d846106df565b6106c4565b90508281526020810184848401111561074e5761074d61065f565b5b610759848285610710565b509392505050565b600082601f8301126107765761077561065a565b5b813561078684826020860161071f565b91505092915050565b6000602082840312156107a5576107a461051e565b5b600082013567ffffffffffffffff8111156107c3576107c2610523565b5b6107cf84828501610761565b91505092915050565b600081519050919050565b600082825260208201905092915050565b6000819050602082019050919050565b600082825260208201905092915050565b60006108208261058b565b61082a8185610804565b935061083a8185602086016105a7565b610843816105d1565b840191505092915050565b61085781610528565b82525050565b6000604083016000830151848203600086015261087a8282610815565b915050602083015161088f602086018261084e565b508091505092915050565b60006108a6838361085d565b905092915050565b6000602082019050919050565b60006108c6826107d8565b6108d081856107e3565b9350836020820285016108e2856107f4565b8060005b8581101561091e57848403895281516108ff858261089a565b945061090a836108ae565b925060208a019950506001810190506108e6565b50829750879550505050505092915050565b6000602082019050818103600083015261094a81846108bb565b905092915050565b600073ffffffffffffffffffffffffffffffffffffffff82169050919050565b600061097d82610952565b9050919050565b61098d81610972565b811461099857600080fd5b50565b6000813590506109aa81610984565b92915050565b6000602082840312156109c6576109c561051e565b5b60006109d48482850161099b565b91505092915050565b60008115159050919050565b6109f2816109dd565b82525050565b6000602082019050610a0d60008301846109e9565b92915050565b7f596f75206861766520616c726561647920766f7465642e000000000000000000600082015250565b6000610a49601783610596565b9150610a5482610a13565b602082019050919050565b60006020820190508181036000830152610a7881610a3c565b9050919050565b7f496e76616c69642063616e64696461746520696e6465782e0000000000000000600082015250565b6000610ab5601883610596565b9150610ac082610a7f565b602082019050919050565b60006020820190508181036000830152610ae481610aa8565b9050919050565b7f4e487b7100000000000000000000000000000000000000000000000000000000600052603260045260246000fd5b7f4e487b7100000000000000000000000000000000000000000000000000000000600052601160045260246000fd5b6000610b5482610528565b91507fffffffffffffffffffffffffffffffffffffffffffffffffffffffffffffffff8203610b8657610b85610b1a565b5b600182019050919050565b7f4e487b7100000000000000000000000000000000000000000000000000000000600052602260045260246000fd5b60006002820490506001821680610bd857607f821691505b602082108103610beb57610bea610b91565b5b50919050565b60008190508160005260206000209050919050565b60006020601f8301049050919050565b600082821b905092915050565b600060088302610c537fffffffffffffffffffffffffffffffffffffffffffffffffffffffffffffffff82610c16565b610c5d8683610c16565b95508019841693508086168417925050509392505050565b6000819050919050565b6000610c9a610c95610c9084610528565b610c75565b610528565b9050919050565b6000819050919050565b610cb483610c7f565b610cc8610cc082610ca1565b848454610c23565b825550505050565b600090565b610cdd610cd0565b610ce8818484610cab565b505050565b5b81811015610d0c57610d01600082610cd5565b600181019050610cee565b5050565b601f821115610d5157610d2281610bf1565b610d2b84610c06565b81016020851015610d3a578190505b610d4e610d4685610c06565b830182610ced565b50505b505050565b600082821c905092915050565b6000610d7460001984600802610d56565b1980831691505092915050565b6000610d8d8383610d63565b9150826002028217905092915050565b610da68261058b565b67ffffffffffffffff811115610dbf57610dbe610664565b5b610dc98254610bc0565b610dd4828285610d10565b600060209050601f831160018114610e075760008415610df5578287015190505b610dff8582610d81565b865550610e67565b601f198416610e1586610bf1565b60005b82811015610e3d57848901518255600182019150602085019450602081019050610e18565b86831015610e5a5784890151610e56601f891682610d63565b8355505b6001600288020188555050505b50505050505056fea2646970667358221220d94db36bb92ca4039a69d0682471e68e32ab9fbc07f86807e3746677a665f5dd64736f6c63430008140033",
  "linkReferences": {},
  "deployedLinkReferences": {}
}